:020000040000FA
:1000000012EF00F09480800ED56E956A150E206E6A
:10001000020E216E090E226E110E836E030E236EE8
:1000200031EF00F002EC00F0202E31EF00F0030E73
:10003000236E150E206E010E836E3AEF00F0212E16
:100040004CEF00F0020E216E060E836E52EF00F0B0
:10005000222E52EF00F0090E226E110E836E31EF48
:1000600000F082B058EF00F0F2A431EF00F0F2940B
:1000700014EF00F0F2A43AEF00F0F294110E836E48
:10008000F2A440EF00F0F294010E836EF2A446EF6A
:1000900000F0F294090E836EF2A44CEF00F0F2949B
:1000A0001FEF00F0F2A452EF00F0F29428EF00F0FE
:1000B000234E17EF00F0F2A45BEF00F0F294F2A4ED
:0A00C0005FEF00F0F29414EF00F07F
:0200CA00000034
:020000040030CA
:0100000000FF
:010001000BF3
:0100020019E4
:010003001EDE
:010005008179
:010006008079
:010008000FE8
:01000900C036
:01000A000FE6
:01000B00E014
:01000C000FE4
:01000D0040B2
:00000001FF
