:020000040000FA
:0400000039EF00F0E4
:100008005982FACF49F0FBCF4AF0F3CF4BF0F4CF47
:100018004CF0F2A812EF00F014EF00F01FEF00F020
:10002800F2A219EF00F01BEF00F01FEF00F0B1ECA7
:100038000AF02FEF00F0F0A624EF00F026EF00F012
:100048002FEF00F0F0A02BEF00F02DEF00F02FEFD6
:1000580000F0ADEC0AF04CC0F4FF4BC0F3FF4AC00F
:10006800FBFF49C0FAFF599211006AEF0AF00450E9
:10007800800B0D6E045004240F6E03AE46EF00F0A3
:1000880048EF00F049EF00F00F800F50D8B44FEF61
:1000980000F051EF00F066EF00F00F28D8A457EFFA
:1000A80000F059EF00F061EF00F0000E016E000E55
:1000B800026E000E036E000E046E038E000E046EB8
:1000C8006EEF00F0000E016E000E026E000E036E61
:1000D800000E046E0850800B0E6E0D500E18D8B42A
:1000E80078EF00F07AEF00F07BEF00F00D8C08500D
:1000F80008240E6E07AE83EF00F085EF00F086EF60
:1001080000F00E800E50D8B48CEF00F08EEF00F0A7
:10011800A3EF00F00E28D8A494EF00F096EF00F0BB
:100128009EEF00F0000E056E000E066E000E076EC4
:10013800000E086E078E000E086EABEF00F0000E82
:10014800056E000E066E000E076E000E086E0F504C
:100158000E5CD8B0B2EF00F0B4EF00F0DBEF00F0C7
:100168000DACB9EF00F0BBEF00F0BDEF00F0800E72
:100178000D1A0FC010F00EC00FF010C00EF001C025
:1001880010F005C001F010C005F002C010F006C064
:1001980002F010C006F003C010F007C003F010C052
:1001A80007F004C010F008C004F010C008F0000EFA
:1001B800106E0F500EC009F00A6A095E000E0A5A46
:1001C8000ABEF0EF00F00A5009E11A0E095CD8A047
:1001D800F0EF00F0F2EF00F029EF01F0015002100B
:1001E80003100410D8A4FBEF00F0FEEF00F0010E9E
:1001F800FFEF00F0000E106E000E016E000E026E92
:10020800000E036E000E046E0EC00FF032EF01F008
:1002180010A011EF01F013EF01F019EF01F0D890E1
:1002280010300109106E1BEF01F0D890103201A0B8
:1002380020EF01F022EF01F023EF01F0108E0434DB
:1002480004320332023201320F2A0E500F5CD8A05A
:1002580030EF01F032EF01F00CEF01F00DBC37EF99
:1002680001F039EF01F079EF01F00F50D8A43FEF1A
:1002780001F041EF01F04BEF01F0000E016E000EAE
:10028800026E000E036E000E046E9AEF02F0055027
:10029800012606500222075003220850042204A017
:1002A80058EF01F05AEF01F006EF02F010A05FEFEF
:1002B80001F061EF01F067EF01F0D890103001090B
:1002C800106E69EF01F0D890103201A06EEF01F0C6
:1002D80070EF01F071EF01F0108E04340432033234
:1002E800023201320F2A06EF02F00550015C065077
:1002F8000258075003580450800A096E0850800AB3
:100308000958D8B08AEF01F08CEF01F0B7EF01F08F
:100318000150055C096E025006580A6E03500758D2
:100328000B6E045008580C6EFF0E0924016EFF0E68
:100338000A20026EFF0E0B20036EFF0E0C20046EC7
:10034800800E0D1A106C1050D8A4ADEF01F0AFEF6D
:1003580001F0BFEF01F0010E0126000E0222032278
:100368000422BFEF01F00550015E0650025A075003
:10037800035A0850045A0150021003100410D8A45C
:10038800C8EF01F0CAEF01F0FFEF01F01050D8A458
:10039800D0EF01F0D2EF01F0FFEF01F0000E016E97
:1003A800000E026E000E036E000E046E9AEF02F04D
:1003B800D890013602360336043610AEE6EF01F067
:1003C800E8EF01F0E9EF01F0018010A0EEEF01F095
:1003D800F0EF01F0F4EF01F0D8801036F6EF01F0FD
:1003E800D89010360F50D8B4FCEF01F0FEEF01F0B2
:1003F800FFEF01F00F0603AE04EF02F006EF02F084
:10040800DCEF01F0000E0E6E10AE0DEF02F00FEFF4
:1004180002F027EF02F010C009F07F0E0916D8B4D9
:1004280018EF02F01AEF02F01EEF02F0010E0E6E46
:1004380027EF02F001A023EF02F025EF02F027EFEB
:1004480002F01AEF02F00E50D8B42DEF02F02FEFA1
:1004580002F05AEF02F0010E0126000E02220322DA
:10046800042204A03AEF02F03CEF02F05AEF02F047
:1004780001C009F002C00AF003C00BF004C00CF080
:100488000C340C320B320A32093209C001F00AC0AE
:1004980002F00BC003F00CC004F00F28D8B457EFDB
:1004A80002F059EF02F05AEF02F00F2A0F28D8B4E1
:1004B80060EF02F062EF02F06AEF02F00F50D8A48A
:1004C80068EF02F06AEF02F07CEF02F0000E016EB6
:1004D800000E026E000E036E000E046E0F50D8A4BC
:1004E80078EF02F07AEF02F07CEF02F0000E0D6E6A
:1004F8000FA081EF02F083EF02F086EF02F0038E87
:1005080087EF02F0039ED8900F30046E0DAE8FEF88
:1005180002F091EF02F092EF02F0048E01C001F0B8
:1005280002C002F003C003F004C004F01200295016
:10053800800B326E29502924386E28AEA6EF02F0BF
:10054800A8EF02F0A9EF02F038803850D8B4AFEF26
:1005580002F0B1EF02F0C4EF02F03828D8A4B7EFE8
:1005680002F0B9EF02F0C1EF02F0000E266E000EA5
:10057800276E000E286E000E296E288ECCEF02F032
:10058800000E266E000E276E000E286E000E296ED5
:100598002D50800B321A2D502D24376E2CAED7EFEC
:1005A80002F0D9EF02F0DAEF02F037803750D8B412
:1005B800E0EF02F0E2EF02F0F5EF02F03728D8A4FE
:1005C800E8EF02F0EAEF02F0F2EF02F0000E2A6E16
:1005D800000E2B6E000E2C6E000E2D6E2C8EFDEF75
:1005E80002F0000E2A6E000E2B6E000E2C6E000E0E
:1005F8002D6E3750D8B403EF03F005EF03F00DEF7D
:1006080003F03850D8A40BEF03F00DEF03F017EF09
:1006180003F0000E266E000E276E000E286E000EE8
:10062800296EAFEF04F02C502602F3CF3DF0F4CF43
:100638003EF03D50336E346A356A366A3E50396E44
:100648003A6A3B6A3C6A2B502702F3CF3DF0F4CF5D
:100658003EF03D503326000E3422352236223E50DD
:100668003926000E3A223B223C222A502802F3CF98
:100678003DF0F4CF3EF03D503326000E34223522B3
:1006880036223E503926000E3A223B223C2235C003
:1006980036F034C035F033C034F0336A2A502702BC
:1006A800F3CF3DF0F4CF3EF03D5033263E50342298
:1006B800000E3522000E36222B502602F3CF3DF0D5
:1006C800F4CF3EF03D5033263E503422000E352202
:1006D800000E362235C036F034C035F033C034F061
:1006E800336A2A502602F3CF3DF0F4CF3EF03D5056
:1006F80033263E503422000E3522000E36222C506E
:100708002702F3CF3DF0F4CF3EF03D5039263E505E
:100718003A22000E3B22000E3C222B502802F3CF37
:100728003DF0F4CF3EF03D5039263E503A22000EBF
:100738003B22000E3C222C502802F3CF3DF0F4CF90
:100748003EF03D502E6E3E502F6E306A316A30C0FA
:1007580031F02FC030F02EC02FF02E6A2E503926DF
:100768002F503A2230503B2231503C2233C02EF0D9
:1007780034C02FF035C030F036C031F0190ECAEF52
:1007880003F0D890313230322F322E32E82EC5EFB6
:1007980003F02E5039262F503A2230503B22315048
:1007A8003C2235C036F034C035F033C034F0336AFB
:1007B800375038C02EF02F6A2E26000E2F22820EB8
:1007C8002E243D6EFF0E2F203E6E00EF04F0D890D1
:1007D80039363A363B363C3636AEF5EF03F0F7EFAE
:1007E80003F0F8EF03F03980D890333634363536D5
:1007F80036363D06D8A03E063BAE05EF04F007EFBF
:1008080004F0EBEF03F0000E376E36AE0EEF04F097
:1008180010EF04F034EF04F0FF0E33142E6EFF0EC9
:1008280034142F6EFF0E3514306E7F0E3614316E71
:100838002E502F1030103110D8B425EF04F027EFC8
:1008480004F02BEF04F0010E376E34EF04F039A0FA
:1008580030EF04F032EF04F034EF04F027EF04F047
:100868003750D8B43AEF04F03CEF04F060EF04F0EE
:10087800010E3926000E3A223B223C223CA047EFCB
:1008880004F049EF04F060EF04F039C02EF03AC0EC
:100898002FF03BC030F03CC031F0313431323032CF
:1008A8002F322E322EC039F02FC03AF030C03BF034
:1008B80031C03CF03D4A3E2A3EBE6BEF04F03E504C
:1008C80008E13D28D8A06BEF04F06DEF04F077EF56
:1008D80004F0000E396E000E3A6E800E3B6E7F0EED
:1008E8003C6EA5EF04F03EBE84EF04F03E5006E1F6
:1008F8003D04D8B082EF04F084EF04F090EF04F0E8
:10090800000E396E000E3A6E000E3B6E000E3C6E05
:10091800000E326EA5EF04F03DC038F0FF0E391618
:10092800FF0E3A167F0E3B16000E3C1638A09FEFBE
:1009380004F0A1EF04F0A2EF04F03B8ED890383019
:100948003C6E32503C1239C026F03AC027F03BC00A
:1009580028F03CC029F012000450800B116E04509E
:100968000424186E03AEBBEF04F0BDEF04F0BEEF35
:1009780004F018801850D8B4C4EF04F0C6EF04F09F
:10098800DBEF04F01828D8A4CCEF04F0CEEF04F085
:10099800D6EF04F0000E016E000E026E000E036E1C
:1009A800000E046E038E000E046EE3EF04F0000EDA
:1009B800016E000E026E000E036E000E046E0850EB
:1009C800800B111A08500824196E07AEEEEF04F0D8
:1009D800F0EF04F0F1EF04F019801950D8B4F7EFF4
:1009E80004F0F9EF04F00EEF05F01928D8A4FFEF92
:1009F80004F001EF05F009EF05F0000E056E000E9A
:100A0800066E000E076E000E086E078E000E086E4A
:100A180016EF05F0000E056E000E066E000E076E4E
:100A2800000E086E0550061007100810D8A41FEF16
:100A380005F021EF05F039EF05F0000E016E000E0C
:100A4800026E000E036E000E046E800E03127F0EFF
:100A580004121150041201C001F002C002F003C0D8
:100A680003F004C004F07CEF06F01850D8A43FEF60
:100A780005F041EF05F04BEF05F0000E016E000E9A
:100A8800026E000E036E000E046E7CEF06F0195025
:100A980018C009F00A6A095E000E0A5A7F0E092476
:100AA800126E000E0A20136E01C00DF002C00EF087
:100AB80003C00FF004C010F0000E016E000E026EAD
:100AC800000E036E000E046E000E146E000E156EFE
:100AD800000E166E000E176E000E196EACEF05F0C4
:100AE8001950D8B47AEF05F07CEF05F093EF05F0D4
:100AF800D8900D360E360F361036D890013602369D
:100B08000336043617AE8BEF05F08DEF05F08EEF48
:100B180005F00180D890143615361636173605506C
:100B28000D5C06500E5807500F5808501058D8A0A2
:100B3800A0EF05F0A2EF05F0ABEF05F0178C05501C
:100B48000D5E06500E5A07500F5A0850105A192AAF
:100B5800190E1964B2EF05F0B4EF05F074EF05F063
:100B68000D500E100F101010D8B4BDEF05F0BFEFE8
:100B780005F0D7EF05F01480D7EF05F0D8900136CF
:100B880002360336043617AECCEF05F0CEEF05F08B
:100B9800CFEF05F00180D890143615361636173683
:100BA8001206D8A0130603AEDCEF05F0DEEF05F061
:100BB800C2EF05F0000E196E17AEE5EF05F0E7EF8E
:100BC80005F00BEF06F0FF0E1414096EFF0E151456
:100BD8000A6EFF0E16140B6E7F0E17140C6E09505A
:100BE8000A100B100C10D8B4FCEF05F0FEEF05F05E
:100BF80002EF06F0010E196E0BEF06F001A007EFE9
:100C080006F009EF06F00BEF06F0FEEF05F01950BD
:100C1800D8B411EF06F013EF06F037EF06F0010E27
:100C28000126000E02220322042204A01EEF06F071
:100C380020EF06F037EF06F001C009F002C00AF015
:100C480003C00BF004C00CF00C340C320B320A3227
:100C5800093209C001F00AC002F00BC003F00CC051
:100C680004F0124A132A13BE42EF06F0135008E1AB
:100C78001228D8A042EF06F044EF06F04FEF06F036
:100C8800000E136E1268000E016E000E026E000E4A
:100C9800036E000E046E13BE5CEF06F0135006E1FF
:100CA8001204D8B05AEF06F05CEF06F06AEF06F0CF
:100CB800000E136E000E126E000E016E000E026E14
:100CC800000E036E000E046E000E116E12C018F0B6
:100CD80018A071EF06F073EF06F076EF06F0038EBA
:100CE80077EF06F0039ED8901830046E2DEF05F0CC
:100CF8001200186E1850D8B484EF06F086EF06F08C
:100D0800A8EF06F013BE8DEF06F08BEF06F0A8EF04
:100D180006F010C014F011C015F012C016F013C080
:100D280017F0141E151E161E171E142A000E152263
:100D38001622172214C01AF015C01BF016C01CF09A
:100D480017C01DF0B0EF06F010C01AF011C01BF06C
:100D580012C01CF013C01DF0105011101210131007
:100D6800D8A4B9EF06F0BBEF06F0C5EF06F0000E09
:100D7800106E000E116E000E126E000E136E56EFFE
:100D880007F0960E196ECFEF06F0192AD8901D328B
:100D98001C321B321A32000E1A14146E000E1B1469
:100DA800156E000E1C14166EFE0E1D14176E1450D0
:100DB800151016101710D8A4E4EF06F0E6EF06F0A9
:100DC800C9EF06F0F4EF06F0192A010E1A26000EF4
:100DD8001B221C221D22D8901D321C321B321A32B3
:100DE800000E1A14146E000E1B14156E000E1C143F
:100DF800166EFF0E1D14176E1450151016101710CE
:100E0800D8A409EF07F00BEF07F0E8EF06F013EFAF
:100E180007F01906D8901A361B361C361D361CBE2C
:100E280018EF07F01AEF07F022EF07F0020E19602B
:100E380020EF07F022EF07F00DEF07F019B027EFCA
:100E480007F029EF07F02AEF07F01C9ED890193217
:100E580019C014F0156A166A176A14C017F0166AD2
:100E6800156A146A14501A1215501B1216501C12C7
:100E780017501D121850D8B444EF07F046EF07F08A
:100E88004EEF07F013BE4DEF07F04BEF07F04EEFB4
:100E980007F01D8E1AC010F01BC011F01CC012F014
:100EA8001DC013F01200BAEC0AF0000E0C6E3A0ED8
:100EB8000B6E7BEC0AF001C009F002C00AF080EC6E
:100EC80009F009C010F00AC011F0126A136A000E86
:100ED8007DEC06F010C04DF011C04EF012C04FF07E
:100EE80013C050F0000E056E000E066E200E076E41
:100EF800410E086E4DC001F04EC002F04FC003F025
:100F080050C004F0B0EC04F001C03FF002C040F063
:100F180003C041F004C042F01EEC08F03FC051F09D
:100F280040C052F051C001F052C002F0000E046EF1
:100F38000A0E036E57EC0AF001C010F002C011F05F
:100F4800000E11BEFF0E126E136E010E7DEC06F040
:100F580010C022F011C023F012C024F013C025F0F5
:100F68004DC01EF04EC01FF04FC020F050C021F001
:100F7800BAEC09F01EC03FF01FC040F020C041F09D
:100F880021C042F01EEC08F03FC053F040C054F0BE
:100F9800000E2A6E000E2B6E200E2C6E410E2D6E4A
:100FA80051C001F052C002F0000E046E0A0E036E2A
:100FB80057EC0AF0535001265450022201C010F099
:100FC80002C011F0000E11BEFF0E126E136E010E5C
:100FD8007DEC06F010C022F011C023F012C024F0FE
:100FE80013C025F04DC01EF04EC01FF04FC020F0BA
:100FF80050C021F0BAEC09F01EC026F01FC027F03F
:1010080020C028F021C029F09BEC02F026C03FF058
:1010180027C040F028C041F029C042F01EEC08F07B
:101028003FC065F040C066F0A8EC0AF0010E000170
:10103800676F120041344234486E4850D8A427EFF5
:1010480008F029EF08F033EF08F0000E3F6E000EAD
:10105800406E000E416E000E426EA0EF08F03FC0D9
:1010680043F040C044F041C045F042C046F0200E75
:1010780043EF08F0D8904632453244324332E82EE6
:101088003EEF08F04350476E418EFF0E3F16FF0EAD
:101098004016FF0E4116000E4216960E485E48BED8
:1010A8005AEF08F058EF08F070EF08F04850800A3F
:1010B800970FD8B062EF08F064EF08F066EF08F019
:1010C80029EF08F0D8904232413240323F32483E50
:1010D80066EF08F088EF08F01F0E486476EF08F016
:1010E80078EF08F080EF08F029EF08F0D8903F3645
:1010F80040364136423648064850D8A486EF08F0B4
:1011080088EF08F07AEF08F04750D8B48EEF08F06F
:1011180090EF08F098EF08F0421E411E401E3F6C09
:10112800000E4022412242223FC03FF040C040F022
:1011380041C041F042C042F012008AEC0AF0F28E3F
:10114800F28C8A84030EE82EFED700F08A94010EF2
:10115800826E51C060F052C061F01EEC09F00D0EB5
:101168000001646FFB0EE82EFED7642FFCD700D079
:10117800000E836E0D0E0001646FFB0EE82EFED785
:10118800642FFCD700D0020E826E53C060F054C0AA
:1011980061F01EEC09F00D0E0001646FFB0EE82EE5
:1011A800FED7642FFCD700D0000E836E0D0E000111
:1011B800646FFB0EE82EFED7642FFCD700D0040E18
:1011C800826E65C060F066C061F01EEC09F00D0E1D
:1011D8000001646FFB0EE82EFED7642FFCD700D009
:1011E800000E836E0D0E0001646FFB0EE82EFED715
:1011F800642FFCD700D000016751D8B406EF09F07E
:1012080008EF09F0ABEF08F00D0E0001646FFB0E5C
:10121800E82EFED7642FFCD700D08A84030EE82E70
:10122800FED700F08A94000E0001676FABEF08F05C
:1012380039EF00F048EF09F07E0E836E7FEF09F07A
:10124800300E836E7FEF09F06D0E836E7FEF09F02D
:10125800790E836E7FEF09F0330E836E7FEF09F00E
:101268005B0E836E7FEF09F05F0E836E7FEF09F0F0
:10127800700E836E7FEF09F07F0E836E7FEF09F0AB
:101288007B0E836E7FEF09F060C062F061C063F08F
:1012980000016351000AD8B454EF09F07FEF09F058
:1012A8006251000AD8B420EF09F0010AD8B424EF3B
:1012B80009F0030AD8B428EF09F0010AD8B42CEFD2
:1012C80009F0070AD8B430EF09F0010AD8B434EFAE
:1012D80009F0030AD8B438EF09F0010AD8B43CEF92
:1012E80009F00F0AD8B440EF09F0010AD8B444EF66
:1012F80009F07FEF09F01200000E0E6E000E0D6E61
:101308000B500C10D8B48BEF09F08DEF09F0B5EF46
:1013180009F0010E0F6E95EF09F0D8900B360C36D8
:101328000F2A0CAE9AEF09F09CEF09F091EF09F043
:10133800D8900D360E360B50095C0C500A58D8A0C0
:10134800A8EF09F0AAEF09F0AFEF09F00B50095E1A
:101358000C500A5A0D80D8900C320B320F2E9CEF8D
:1013680009F00DC009F00EC00AF01200000E221A92
:10137800000E231A000E241A800E251A1EC001F032
:101388001FC002F020C003F021C004F022C005F005
:1013980023C006F024C007F025C008F03BEC00F09D
:1013A80001C01EF002C01FF003C020F004C021F0ED
:1013B8001200000E8D6E000E8C6E000E896E000EEF
:1013C8008A6E000E8B6E070E966E9268FB0E936EF9
:1013D800C00E946E000E956E0F015E69C00E5D6FB3
:1013E800380E5C6F070E5F6F000E5B6F000E856E28
:1013F800F18E1200000168516911D8B406EF0AF0A5
:1014080008EF0AF015EF0AF002D815EF0AF0050008
:10141800FA6E6851FD6E6951FE6EF850FF6EFA5013
:101428001200120055505610D8B41DEF0AF01FEFE5
:101438000AF02CEF0AF002D82CEF0AF00500FA6E39
:101448005550FD6E5650FE6EF850FF6EFA50120061
:101458001200D59C000ED76E000ED66ED650D7CF90
:1014680060F00001616B60C061F0606B6011576EE5
:101478006151586EF2949F0ED56E1200F292F18C63
:101488006A0E0001606F150E616FA3EC0AF0F28816
:10149800F090F19AAE0E0001606F0E0E616F9EEC37
:1014A8000AF0F086120001500302F3CF05F0F4CFE2
:1014B80006F001500402F350062602500302F350CE
:1014C800062605C001F006C002F012000001676B95
:1014D800666B656B00EE4DF0080EEE6AE806FDE1FE
:1014E80059905992000EF86E0001A1EF08F0D6CF7E
:1014F80007F0D7CF08F00850036E0750056E03C0F9
:1015080006F005C001F006C002F01200B8EC0AF0BF
:10151800DDEC09F095EC0AF042EC0AF02DEC0AF04B
:101528001200520ED36E000ED26E000E9B6E000E8D
:10153800B56E120060C055F061C056F0120060C070
:1015480068F061C069F012005850D76E57C0D6FFD6
:101558001200F09016EC0AF01200F292FEEC09F07C
:101568001200BCEC0AF01200D09E1200D59E1200A8
:04157800D58E1200FA
:020000040020DA
:08000000FFFFFFFFFFFFFFFF00
:020000040030CA
:0E00000000285F3CFFD381FF0FC00FE00F40D0
:00000001FF
