:020000040000FA
:040000001FEF00F0FE
:100008001482FACF01F0FBCF02F0F2AA0EEF00F053
:1000180010EF00F019EF00F0F2A415EF00F017EF61
:1000280000F019EF00F065EC01F002C0FBFF01C021
:10003800FAFF14921100CDEF01F04BEF00F03F0EE4
:10004800836E81EF00F0060E836E81EF00F05B0E89
:10005800836E81EF00F04F0E836E81EF00F0660E25
:10006800836E81EF00F06D0E836E81EF00F07D0EE0
:10007800836E81EF00F0070E836E81EF00F07F0E34
:10008800836E81EF00F0670E836E81EF00F003C08E
:1000980005F004C006F00650000AD8B456EF00F088
:1000A80081EF00F00550000AD8B423EF00F0010AF0
:1000B800D8B427EF00F0030AD8B42BEF00F0010AF8
:1000C800D8B42FEF00F0070AD8B433EF00F0010AD4
:1000D800D8B437EF00F0030AD8B43BEF00F0010AB8
:1000E800D8B43FEF00F00F0AD8B443EF00F0010A8C
:1000F800D8B447EF00F081EF00F01200ACEF00F049
:100108003F0E816EE2EF00F0060E816EE2EF00F026
:100118005B0E816EE2EF00F04F0E816EE2EF00F0B1
:10012800660E816EE2EF00F06D0E816EE2EF00F078
:100138007D0E816EE2EF00F0070E816EE2EF00F0B7
:100148007F0E816EE2EF00F0670E816EE2EF00F045
:1001580003C005F004C006F00650000AD8B4B7EF93
:1001680000F0E2EF00F00550000AD8B484EF00F088
:10017800010AD8B488EF00F0030AD8B48CEF00F075
:10018800010AD8B490EF00F0070AD8B494EF00F051
:10019800010AD8B498EF00F0030AD8B49CEF00F035
:1001A800010AD8B4A0EF00F00F0AD8B4A4EF00F009
:1001B800010AD8B4A8EF00F0E2EF00F01200000E38
:1001C8000D6E000E0C6E0CC003F00DC004F021EC97
:1001D80000F0000E0F6E000E0E6E0EC003F00FC082
:1001E80004F082EC00F09CEC01F0DBEC01F00E4A2C
:1001F8000F2A0FBE09EF01F00F5009E10A0E0E5C3D
:10020800D8A009EF01F00BEF01F0F1EF00F00C4A74
:100218000D2A0DBE19EF01F00D5009E10A0E0C5C14
:10022800D8A019EF01F01BEF01F0E7EF00F0D4ECD4
:1002380001F01200BBEC01F082A225EF01F027EFDC
:1002480001F02BEF01F0D4EC01F038EF01F082A4BB
:1002580030EF01F032EF01F038EF01F0E5EC01F09A
:1002680038EF01F0E3EC00F082B03DEF01F03FEF32
:1002780001F036EF01F020EF01F01FEF00F0000E63
:100288008D6E000E8C6E000E896E000E8A6E000E4A
:100298008B6E070E966E9268000E936EC70E946E64
:1002A800000E956E000E0F015E6FC00E5D6F000EA2
:1002B8005C6F070E5F6F2F0E5B6F000E856EF18E01
:1002C8001200F2941150D76E10C0D6FF12501310BE
:1002D800D8B471EF01F073EF01F080EF01F002D8AC
:1002E80080EF01F00500FA6E1250FD6E1350FE6E9D
:1002F800F850FF6EFA5012001200D59C850ED76E8A
:10030800ED0ED66ED650D7CF05F0066A05C006F0BA
:10031800056A0510106E0650116EF294F28AD80E16
:10032800036E030E046EE0EC01F0950ED56E12001C
:10033800E8EC01F0A0EF01F0ACEC01F003280410A8
:10034800D8A4A9EF01F0ABEF01F0A0EF01F0120083
:10035800D6CF09F0D7CF0AF00A50056E0950076EBC
:1003680005C008F007C003F008C004F01200EAEC6A
:1003780001F043EC01F0C4EC01F081EC01F0120053
:10038800600ED36E000ED26E000E9B6E000EB56E20
:10039800120014901492000EF86E00011EEF01F086
:1003A800E5EC01F03F0E816E3F0E836E1200115096
:1003B800D76E10C0D6FF120003C012F004C013F0AD
:1003C800120081EC01F01200D58E1200D09E1200AE
:0203D800120011
:020000040020DA
:08000000FFFFFFFFFFFFFFFF00
:020000040030CA
:0E00000000285F3CFFD381FF0FC00FE00F40D0
:00000001FF
