:020000040000FA
:040000001FEF00F0FE
:100008001482FACF01F0FBCF02F0F2AA0EEF00F053
:1000180010EF00F019EF00F0F2A415EF00F017EF61
:1000280000F019EF00F05AEC01F002C0FBFF01C02C
:10003800FAFF14921100C2EF01F04BEF00F03F0EEF
:10004800816E81EF00F0060E816E81EF00F05B0E8D
:10005800816E81EF00F04F0E816E81EF00F0660E29
:10006800816E81EF00F06D0E816E81EF00F07D0EE4
:10007800816E81EF00F0070E816E81EF00F07F0E38
:10008800816E81EF00F0670E816E81EF00F003C092
:1000980005F004C006F00650000AD8B456EF00F088
:1000A80081EF00F00550000AD8B423EF00F0010AF0
:1000B800D8B427EF00F0030AD8B42BEF00F0010AF8
:1000C800D8B42FEF00F0070AD8B433EF00F0010AD4
:1000D800D8B437EF00F0030AD8B43BEF00F0010AB8
:1000E800D8B43FEF00F00F0AD8B443EF00F0010A8C
:1000F800D8B447EF00F081EF00F01200ACEF00F049
:100108003F0E836EE2EF00F0060E836EE2EF00F022
:100118005B0E836EE2EF00F04F0E836EE2EF00F0AD
:10012800660E836EE2EF00F06D0E836EE2EF00F074
:100138007D0E836EE2EF00F0070E836EE2EF00F0B3
:100148007F0E836EE2EF00F0670E836EE2EF00F041
:1001580003C005F004C006F00650000AD8B4B7EF93
:1001680000F0E2EF00F00550000AD8B484EF00F088
:10017800010AD8B488EF00F0030AD8B48CEF00F075
:10018800010AD8B490EF00F0070AD8B494EF00F051
:10019800010AD8B498EF00F0030AD8B49CEF00F035
:1001A800010AD8B4A0EF00F00F0AD8B4A4EF00F009
:1001B800010AD8B4A8EF00F0E2EF00F01200B0ECAA
:1001C80001F082A0EAEF00F0ECEF00F026EF01F07A
:1001D800000E0D6E000E0C6E0CC003F00DC004F086
:1001E80082EC00F0000E0F6E000E0E6E0EC003F0D3
:1001F8000FC004F021EC00F091EC01F0C9EC01F023
:100208000E4A0F2A0FBE12EF01F00F5009E10A0E35
:100218000E5CD8A012EF01F014EF01F0FAEF00F035
:100228000C4A0D2A0DBE22EF01F00D5009E10A0E0D
:100238000C5CD8A022EF01F024EF01F0F0EF00F001
:10024800E5EF00F082A22BEF01F02DEF01F033EF84
:1002580001F03F0E816E3F0E836EE5EF00F0825095
:10026800E5EF00F01FEF00F0000E8D6E000E8C6EB3
:10027800000E896E000E8A6E000E8B6E070E966E4B
:100288009268000E936EC70E946E000E956E000E67
:100298000F015E6FC00E5D6F000E5C6F070E5F6F23
:1002A8002F0E5B6F000E856EF18E1200F2941150C6
:1002B800D76E10C0D6FF12501310D8B466EF01F0F5
:1002C80068EF01F075EF01F002D875EF01F0050055
:1002D800FA6E1250FD6E1350FE6EF850FF6EFA5013
:1002E80012001200D59C850ED76EED0ED66ED65034
:1002F800D7CF05F0066A05C006F0056A0510106E2E
:100308000650116EF294F28AAE0E036E030E046E5E
:10031800CEEC01F0950ED56E1200D3EC01F095EFFE
:1003280001F0A1EC01F003280410D8A49EEF01F01D
:10033800A0EF01F095EF01F01200D6CF09F0D7CF6A
:100348000AF00A50056E0950076E05C008F007C08C
:1003580003F008C004F01200D5EC01F038EC01F00D
:10036800B9EC01F076EC01F01200600ED36E000ECD
:10037800D26E000E9B6E000EB56E12001490149291
:10038800000EF86E0001E3EF00F01150D76E10C0B8
:10039800D6FF120003C012F004C013F01200D58E6D
:0803A8001200D09E12001200A9
:020000040020DA
:08000000FFFFFFFFFFFFFFFF00
:020000040030CA
:0E00000000285F3CFFD381FF0FC00FE00F40D0
:00000001FF
