:020000040000FA
:0400000031EF00F0EC
:100008003782FACF31F0FBCF32F0F2A80EEF00F0D2
:1000180010EF00F01BEF00F0F2A215EF00F017EF61
:1000280000F01BEF00F00FEC0AF02BEF00F0F0A649
:1000380020EF00F022EF00F02BEF00F0F0A027EF08
:1000480000F029EF00F02BEF00F00BEC0AF032C0C3
:10005800FBFF31C0FAFF37921100DBEF09F0000116
:100068006351800B6C6F63516325726F62AF3FEF12
:1000780000F041EF00F042EF00F072817251D8B405
:1000880048EF00F04AEF00F05DEF00F07229D8A4C5
:1000980050EF00F052EF00F05AEF00F0000E606FE2
:1000A800000E616F000E626F000E636F628F65EF66
:1000B80000F0000E606F000E616F000E626F000EA0
:1000C800636F6751800B6C1B67516725716F66AF53
:1000D80070EF00F072EF00F073EF00F07181715172
:1000E800D8B479EF00F07BEF00F08EEF00F07129C3
:1000F800D8A481EF00F083EF00F08BEF00F0000E42
:10010800646F000E656F000E666F000E676F668F76
:1001180096EF00F0000E646F000E656F000E666FBC
:10012800000E676F7151D8B49CEF00F09EEF00F09D
:10013800A6EF00F07251D8A4A4EF00F0A6EF00F0EB
:10014800B0EF00F0000E606F000E616F000E626F7E
:10015800000E636F48EF02F066516003F3CF77F04B
:10016800F4CF78F077516D6F6E6B6F6B706B785161
:10017800736F746B756B766B65516103F3CF77F0B2
:10018800F4CF78F077516D27000E6E236F2370231C
:1001980078517327000E7423752376236451620304
:1001A800F3CF77F0F4CF78F077516D27000E6E23F8
:1001B8006F23702378517327000E742375237623D9
:1001C8006FC070F06EC06FF06DC06EF06D6B6451F3
:1001D8006103F3CF77F0F4CF78F077516D2778513A
:1001E8006E23000E6F23000E702365516003F3CF5A
:1001F80077F0F4CF78F077516D2778516E23000EA1
:100208006F23000E70236FC070F06EC06FF06DC06A
:100218006EF06D6B64516003F3CF77F0F4CF78F034
:1002280077516D2778516E23000E6F23000E7023CF
:1002380066516103F3CF77F0F4CF78F077517327E5
:1002480078517423000E7523000E762365516203DE
:10025800F3CF77F0F4CF78F0775173277851742380
:10026800000E7523000E762366516203F3CF77F0F4
:10027800F4CF78F07751686F7851696F6A6B6B6B60
:100288006AC06BF069C06AF068C069F0686B685151
:100298007327695174236A5175236B5176236DC096
:1002A80068F06EC069F06FC06AF070C06BF0190E2C
:1002B80063EF01F0D8906B336A3369336833E82E03
:1002C8005EEF01F068517327695174236A517523F1
:1002D8006B5176236FC070F06EC06FF06DC06EF01A
:1002E8006D6B715172C068F0696B6827000E6923E5
:1002F800820E6825776FFF0E6921786F99EF01F0FC
:10030800D890733774377537763770AF8EEF01F042
:1003180090EF01F091EF01F07381D8906D376E374F
:100328006F3770377707D8A0780775AF9EEF01F061
:10033800A0EF01F084EF01F0000E716F70AFA7EF2E
:1003480001F0A9EF01F0CDEF01F0FF0E6D15686F18
:10035800FF0E6E15696FFF0E6F156A6F7F0E7015B1
:100368006B6F685169116A116B11D8B4BEEF01F057
:10037800C0EF01F0C4EF01F0010E716FCDEF01F095
:1003880073A1C9EF01F0CBEF01F0CDEF01F0C0EFA1
:1003980001F07151D8B4D3EF01F0D5EF01F0F9EFC6
:1003A80001F0010E7327000E74237523762376A1BE
:1003B800E0EF01F0E2EF01F0F9EF01F073C068F04F
:1003C80074C069F075C06AF076C06BF06B356B333A
:1003D8006A336933683368C073F069C074F06AC0FF
:1003E80075F06BC076F0774B782B78BF04EF02F08E
:1003F800785108E17729D8A004EF02F006EF02F05F
:1004080010EF02F0000E736F000E746F800E756FA0
:100418007F0E766F3EEF02F078BF1DEF02F0785145
:1004280006E17705D8B01BEF02F01DEF02F029EFC7
:1004380002F0000E736F000E746F000E756F000EE1
:10044800766F000E6C6F3EEF02F077C072F0FF0E11
:100458007317FF0E74177F0E7517000E761772A1AB
:1004680038EF02F03AEF02F03BEF02F0758FD890C8
:100478007231766F6C51761373C060F074C061F09E
:1004880075C062F076C063F0120000017C51800BE9
:10049800896F7C517C25906F7BAF55EF02F057EF49
:1004A80002F058EF02F090819051D8B45EEF02F05C
:1004B80060EF02F075EF02F09029D8A466EF02F021
:1004C80068EF02F070EF02F0000E796F000E7A6F9D
:1004D800000E7B6F000E7C6F7B8F000E7C6F7DEFB4
:1004E80002F0000E796F000E7A6F000E7B6F000E1F
:1004F8007C6F8051800B891B80518025916F7FAF65
:1005080088EF02F08AEF02F08BEF02F091819151AF
:10051800D8B491EF02F093EF02F0A8EF02F091291E
:10052800D8A499EF02F09BEF02F0A3EF02F0000EBF
:100538007D6F000E7E6F000E7F6F000E806F7F8FC5
:10054800000E806FB0EF02F0000E7D6F000E7E6F20
:10055800000E7F6F000E806F7D517E117F1180111C
:10056800D8A4B9EF02F0BBEF02F0D3EF02F0000E0F
:10057800796F000E7A6F000E7B6F000E7C6F800E15
:100588007B137F0E7C1389517C1379C079F07AC074
:100598007AF07BC07BF07CC07CF016EF04F09051C1
:1005A800D8A4D9EF02F0DBEF02F0E5EF02F0000E7D
:1005B800796F000E7A6F000E7B6F000E7C6F16EF5E
:1005C80004F0915190C081F0826B815F000E825BD4
:1005D8007F0E81258A6F000E82218B6F79C085F08E
:1005E8007AC086F07BC087F07CC088F0000E796FF7
:1005F800000E7A6F000E7B6F000E7C6F000E8C6F02
:10060800000E8D6F000E8E6F000E8F6F000E916FB3
:1006180046EF03F09151D8B414EF03F016EF03F04E
:100628002DEF03F0D8908537863787378837D890ED
:1006380079377A377B377C378FAF25EF03F027EF91
:1006480003F028EF03F07981D8908C378D378E37F7
:100658008F377D51855D7E5186597F5187598051ED
:100668008859D8A03AEF03F03CEF03F045EF03F0C8
:100678008F8D7D51855F7E51865B7F51875B805171
:10068800885B912B190E91654CEF03F04EEF03F048
:100698000EEF03F08551861187118811D8B457EFF2
:1006A80003F059EF03F071EF03F08C8171EF03F061
:1006B800D89079377A377B377C378FAF66EF03F07E
:1006C80068EF03F069EF03F07981D8908C378D37A4
:1006D8008E378F378A07D8A08B077BAF76EF03F06A
:1006E80078EF03F05CEF03F0000E916F8FAF7FEFB0
:1006F80003F081EF03F0A5EF03F0FF0E8C15816F77
:10070800FF0E8D15826FFF0E8E15836F7F0E8F156E
:10071800846F8151821183118411D8B496EF03F04C
:1007280098EF03F09CEF03F0010E916FA5EF03F033
:1007380079A1A1EF03F0A3EF03F0A5EF03F098EF81
:1007480003F09151D8B4ABEF03F0ADEF03F0D1EF64
:1007580003F0010E7927000E7A237B237C237CA1EA
:10076800B8EF03F0BAEF03F0D1EF03F079C081F0EE
:100778007AC082F07BC083F07CC084F084358433F7
:1007880083338233813381C079F082C07AF083C0A9
:100798007BF084C07CF08A4B8B2B8BBFDCEF03F0A3
:1007A8008B5108E18A29D8A0DCEF03F0DEEF03F0D3
:1007B800E9EF03F0000E8B6F8A69000E796F000E67
:1007C8007A6F000E7B6F000E7C6F8BBFF6EF03F025
:1007D8008B5106E18A05D8B0F4EF03F0F6EF03F089
:1007E80004EF04F0000E8B6F000E8A6F000E796F15
:1007F800000E7A6F000E7B6F000E7C6F000E896F03
:100808008AC090F090A10BEF04F00DEF04F010EF08
:1008180004F07B8F11EF04F07B9FD89090317C6FB0
:10082800C7EF02F012001A50800B276E1A501A24D4
:100838002E6E19AE22EF04F024EF04F025EF04F039
:100848002E802E50D8B42BEF04F02DEF04F042EF99
:1008580004F02E28D8A433EF04F035EF04F03DEF70
:1008680004F0000E176E000E186E000E196E000EC2
:100878001A6E198E000E1A6E4AEF04F0000E176EEB
:10088800000E186E000E196E000E1A6E1E50800BA8
:10089800271A1E501E242F6E1DAE55EF04F057EF79
:1008A80004F058EF04F02F802F50D8B45EEF04F016
:1008B80060EF04F075EF04F02F28D8A466EF04F079
:1008C80068EF04F070EF04F0000E1B6E000E1C6E53
:1008D800000E1D6E000E1E6E1D8E000E1E6E7DEF2C
:1008E80004F0000E1B6E000E1C6E000E1D6E000E36
:1008F8001E6E1B501C101D101E10D8A486EF04F08D
:1009080088EF04F0A0EF04F0000E176E000E186ECA
:10091800000E196E000E1A6E800E19127F0E1A1232
:1009280027501A1217C017F018C018F019C019F07C
:100938001AC01AF0E3EF05F02E50D8A4A6EF04F081
:10094800A8EF04F0B2EF04F0000E176E000E186E58
:10095800000E196E000E1A6EE3EF05F02F502EC030
:100968001FF0206A1F5E000E205A7F0E1F24286E7B
:10097800000E2020296E17C023F018C024F019C0DB
:1009880025F01AC026F0000E176E000E186E000E25
:10099800196E000E1A6E000E2A6E000E2B6E000ED7
:1009A8002C6E000E2D6E000E2F6E13EF05F02F50DB
:1009B800D8B4E1EF04F0E3EF04F0FAEF04F0D890D4
:1009C8002336243625362636D89017361836193663
:1009D8001A362DAEF2EF04F0F4EF04F0F5EF04F060
:1009E8001780D8902A362B362C362D361B50235C90
:1009F8001C5024581D5025581E502658D8A007EFC3
:100A080005F009EF05F012EF05F02D8C1B50235E61
:100A18001C50245A1D50255A1E50265A2F2A190E8A
:100A28002F6419EF05F01BEF05F0DBEF04F02350FE
:100A3800241025102610D8B424EF05F026EF05F071
:100A48003EEF05F02A803EEF05F0D89017361836AD
:100A580019361A362DAE33EF05F035EF05F036EFBF
:100A680005F01780D8902A362B362C362D362806D6
:100A7800D8A0290619AE43EF05F045EF05F029EF98
:100A880005F0000E2F6E2DAE4CEF05F04EEF05F081
:100A980072EF05F0FF0E2A141F6EFF0E2B14206E46
:100AA800FF0E2C14216E7F0E2D14226E1F50201065
:100AB80021102210D8B463EF05F065EF05F069EF57
:100AC80005F0010E2F6E72EF05F017A06EEF05F01E
:100AD80070EF05F072EF05F065EF05F02F50D8B410
:100AE80078EF05F07AEF05F09EEF05F0010E172676
:100AF800000E182219221A221AA085EF05F087EF96
:100B080005F09EEF05F017C01FF018C020F019C0BF
:100B180021F01AC022F022342232213220321F3230
:100B28001FC017F020C018F021C019F022C01AF019
:100B3800284A292A29BEA9EF05F0295008E12828C2
:100B4800D8A0A9EF05F0ABEF05F0B6EF05F0000E61
:100B5800296E2868000E176E000E186E000E196EAA
:100B6800000E1A6E29BEC3EF05F0295006E12804CD
:100B7800D8B0C1EF05F0C3EF05F0D1EF05F0000ED6
:100B8800296E000E286E000E176E000E186E000EED
:100B9800196E000E1A6E000E276E28C02EF02EA0B9
:100BA800D8EF05F0DAEF05F0DDEF05F0198EDEEF8E
:100BB80005F0199ED8902E301A6E94EF04F01200AA
:100BC800E8EC09F0F28EF28C8A86030EE82EFED746
:100BD80000F08A96A0C060F0A1C061F0A2C062F0E7
:100BE800A3C063F0000E0001646F000E656F200E55
:100BF800666F420E676F1FEC08F00001D8B007EF70
:100C080006F009EF06F053EF06F08B948B9C8B806F
:100C18008B82020E00019F6F450E9E6FA90EE82E73
:100C2800FED79E2FFCD79F2FFAD700D08B908B92A0
:100C3800000E00017D6F000E7E6F200E7F6F420E4A
:100C4800806F000E646F000E656FFA0E666F440EBB
:100C5800676FA0C060F0A1C061F0A2C062F0A3C03D
:100C680063F033EC00F060C079F061C07AF062C0E4
:100C78007BF063C07CF049EC02F079C092F07AC056
:100C880093F07BC094F07CC095F09BEC07F092C089
:100C98009CF093C09DF05AEC09F0ABEF06F0100EF3
:100CA800816E000E616F090E606FA2EC08F00D0EE8
:100CB80000019E6FFB0EE82EFED79E2FFCD700D0BA
:100CC800000E816E0D0E00019E6FFB0EE82EFED702
:100CD8009E2FFCD700D0200E816E000E0001616FA0
:100CE800080E606FA2EC08F00D0E00019E6FFB0E5F
:100CF800E82EFED79E2FFCD700D0000E816E0D0E79
:100D080000019E6FFB0EE82EFED79E2FFCD700D069
:100D1800400E816E000E0001616F010E606FA2EC43
:100D280008F00D0E00019E6FFB0EE82EFED79E2FD9
:100D3800FCD700D0000E816E0D0E00019E6FFB0ED9
:100D4800E82EFED79E2FFCD700D08B848B8C000119
:100D5800A451D8B4B2EF06F0B4EF06F0EEEF05F008
:100D68008A86030EE82EFED700F08A96000E000150
:100D7800A46FEEEF05F031EF00F0116E1150D8B40A
:100D8800C8EF06F0CAEF06F0ECEF06F00CBED1EFA4
:100D980006F0CFEF06F0ECEF06F009C00DF00AC040
:100DA8000EF00BC00FF00CC010F00D1E0E1E0F1E23
:100DB800101E0D2A000E0E220F2210220DC013F055
:100DC8000EC014F00FC015F010C016F0F4EF06F0C6
:100DD80009C013F00AC014F00BC015F00CC016F0CF
:100DE80009500A100B100C10D8A4FDEF06F0FFEF05
:100DF80006F009EF07F0000E096E000E0A6E000EED
:100E08000B6E000E0C6E9AEF07F0960E126E13EF33
:100E180007F0122AD8901632153214321332000E07
:100E280013140D6E000E14140E6E000E15140F6EB2
:100E3800FE0E1614106E0D500E100F101010D8A4C0
:100E480028EF07F02AEF07F00DEF07F038EF07F06B
:100E5800122A010E1326000E142215221622D890EB
:100E68001632153214321332000E13140D6E000EA2
:100E780014140E6E000E15140F6EFF0E1614106E5D
:100E88000D500E100F101010D8A44DEF07F04FEFB3
:100E980007F02CEF07F057EF07F01206D89013363B
:100EA80014361536163615BE5CEF07F05EEF07F000
:100EB80066EF07F0020E126064EF07F066EF07F0C6
:100EC80051EF07F012B06BEF07F06DEF07F06EEF20
:100ED80007F0159ED890123212C00DF00E6A0F6AF4
:100EE800106A0DC010F00F6A0E6A0D6A0D501312C9
:100EF8000E5014120F501512105016121150D8B46B
:100F080088EF07F08AEF07F092EF07F00CBE91EF39
:100F180007F08FEF07F092EF07F0168E13C009F075
:100F280014C00AF015C00BF016C00CF01200000136
:100F3800943595359B6F9B51D8A4A5EF07F0A7EF83
:100F480007F0B1EF07F0000E926F000E936F000EDE
:100F5800946F000E956F1EEF08F092C096F093C044
:100F680097F094C098F095C099F0200EC1EF07F063
:100F7800D8909933983397339633E82EBCEF07F01F
:100F880096519A6F948FFF0E9217FF0E9317FF0ECC
:100F98009417000E9517960E9B5F9BBFD8EF07F02E
:100FA800D6EF07F0EEEF07F09B51800A970FD8B005
:100FB800E0EF07F0E2EF07F0E4EF07F0A7EF07F044
:100FC800D89095339433933392339B3FE4EF07F0F3
:100FD80006EF08F01F0E9B65F4EF07F0F6EF07F039
:100FE800FEEF07F0A7EF07F0D890923793379437C2
:100FF80095379B079B51D8A404EF08F006EF08F03B
:10100800F8EF07F09A51D8B40CEF08F00EEF08F09B
:1010180016EF08F0951F941F931F926D000E9323EF
:101028009423952392C092F093C093F094C094F0C7
:1010380095C095F01200000E00016015686F000E53
:101048006115696F800E62156A6F7F0E63156B6F8D
:10105800685169116A116B11D8A435EF08F037EFA0
:1010680008F03FEF08F0000E606F000E616F000E91
:10107800626F000E636F000E6415686F000E6515D1
:10108800696F800E66156A6F7F0E67156B6F685102
:1010980069116A116B11D8A454EF08F056EF08F0E3
:1010A8005EEF08F0000E646F000E656F000E666F4D
:1010B800000E676F63AF63EF08F065EF08F06EEF3F
:1010C80008F0606D611FD8B0612B621FD8B0622B29
:1010D800800E635767AF73EF08F075EF08F07EEF87
:1010E80008F0646D651FD8B0652B661FD8B0662BF5
:1010F800800E6757000E601B000E611B000E621BFE
:10110800800E631B000E641B000E651B000E661B21
:10111800800E671B6451605D655161596651625963
:1011280067516359D8B09BEF08F09DEF08F0A0EF26
:1011380008F0D890A1EF08F0D8801200CCEF08F0A2
:101148007E0E836E03EF09F0300E836E03EF09F015
:101158006D0E836E03EF09F0790E836E03EF09F0CD
:10116800330E836E03EF09F05B0E836E03EF09F015
:101178005F0E836E03EF09F0700E836E03EF09F0C4
:101188007F0E836E03EF09F07B0E836E03EF09F089
:1011980060C062F061C063F000016351000AD8B416
:1011A800D8EF08F003EF09F06251000AD8B4A4EFB1
:1011B80008F0010AD8B4A8EF08F0030AD8B4ACEFD5
:1011C80008F0010AD8B4B0EF08F0070AD8B4B4EFB1
:1011D80008F0010AD8B4B8EF08F0030AD8B4BCEF95
:1011E80008F0010AD8B4C0EF08F00F0AD8B4C4EF69
:1011F80008F0010AD8B4C8EF08F003EF09F01200AC
:1012080018EC0AF0CCEC09F001C009F002C00AF0B1
:101218000B6A0C6A000EC1EC06F009C017F00AC090
:1012280018F00BC019F00CC01AF0000E1B6E000E5F
:101238001C6E680E1D6E420E1E6E17EC04F017C071
:10124800A0F018C0A1F019C0A2F01AC0A3F006ECD3
:101258000AF0010E0001A46F0D0E306EFC0EE82E90
:10126800FED7302EFCD71200000E8D6E000E8C6E4D
:10127800000E896E000E8A6E000E8B6E070E966E3B
:101288009268870E936E800E946E000E956EFC0E1B
:101298000F015E6FC40E5D6F340E5C6F070E5F6FDB
:1012A8002F0E5B6F000E856EF18E120064EF09F051
:1012B800C80E00D0E82EFDD700019C07D8A09D07D6
:1012C80000019DBF72EF09F09D5106E19C05D8B061
:1012D80070EF09F072EF09F05CEF09F012000001FD
:1012E800A551A611D8B47BEF09F07DEF09F08AEF7C
:1012F80009F002D88AEF09F00500FA6EA551FD6ED3
:10130800A651FE6EF850FF6EFA50120012003350CC
:101318003410D8B492EF09F094EF09F0A1EF09F076
:1013280002D8A1EF09F00500FA6E3350FD6E345073
:10133800FE6EF850FF6EFA5012001200D59C000E97
:10134800D76E000ED66ED650D7CF60F00001616B15
:1013580060C061F0606B6011356E6151366EF29459
:101368009F0ED56E1200F292F18C260E0001606F6E
:10137800140E616F01EC0AF0F288F090F19A080EF1
:101388000001606F120E616FFCEC09F0F08612002C
:10139800D6CF07F0D7CF08F00850036E0750056E78
:1013A80003C006F005C001F006C002F012000001FB
:1013B800A46BA36BA26BA16BA06B37903792000E46
:1013C800F86E0001E4EF05F016EC0AF038EC09F0CD
:1013D800F3EC09F0B7EC09F0A2EC09F01200520E98
:1013E800D36E000ED26E000E9B6E000EB56E12000C
:1013F80060C033F061C034F0120060C0A5F061C075
:10140800A6F012003650D76E35C0D6FF1200F09005
:101418008BEC09F01200F29273EC09F012001AEC4E
:101428000AF01200D09E1200D59E1200D58E12002E
:020000040020DA
:08000000FFFFFFFFFFFFFFFF00
:020000040030CA
:0E00000000285F3CFFD381FF0FC00FE00F40D0
:00000001FF
