:020000040000FA
:0400000045EF00F0D8
:100008001682FACF09F0FBCF0AF0F2A80EEF00F043
:1000180010EF00F01BEF00F0F2A215EF00F017EF61
:1000280000F01BEF00F0ABEC06F03FEF00F0F0A69D
:1000380020EF00F022EF00F02DEF00F0F0A027EF06
:1000480000F029EF00F02DEF00F0A7EC06F03FEFED
:1000580000F0F0A832EF00F034EF00F03FEF00F0CE
:10006800F0A239EF00F03BEF00F03FEF00F0A3EC17
:1000780006F03FEF00F00AC0FBFF09C0FAFF169236
:06008800110031EF06F04B
:10080000003132333435363738392A3023333132F8
:10081000380080EC06F0F28EF28C0F0E836E1150D1
:10082000D8B415EF04F017EF04F00FEF04F0010E49
:10083000836E8150D8B41FEF04F021EF04F023EF52
:1008400004F0000E146E020E836E8150D8B42BEFAC
:1008500004F02DEF04F02FEF04F0010E146E040EDF
:10086000836E8150D8B437EF04F039EF04F03BEFDA
:1008700004F0020E146E080E836E8150D8B443EF5C
:1008800004F045EF04F047EF04F0030E146E0F0E72
:10089000836E122A1450030D010E0F6E080E106E97
:1008A000F3500F26F450102213500F26000E102282
:1008B0000FC0F6FF10C0F7FF0800F550230AD8A4B8
:1008C00064EF04F066EF04F06AEF04F0000E126EBD
:1008D000010E156E1204D8A470EF04F072EF04F04C
:1008E00092EF04F01450030D010E0F6E080E106EFF
:1008F000F3500F26F450102213500F26000E102232
:100900000FC0F6FF10C0F7FF0800F550380AD8B442
:100910008CEF04F08EEF04F047EF05F0000E156E3B
:1009200047EF05F0020E1218D8A499EF04F09BEFE0
:1009300004F0B9EF04F01450030D010E0F6E080E11
:10094000106EF3500F26F450102213500F26000E95
:1009500010220FC0F6FF10C0F7FF0800F550320A52
:10096000D8B4B5EF04F0B7EF04F047EF05F08EEF21
:1009700004F0030E1218D8A4C0EF04F0C2EF04F084
:10098000E0EF04F01450030D010E0F6E080E106E10
:10099000F3500F26F450102213500F26000E102291
:1009A0000FC0F6FF10C0F7FF0800F550310AD8B4A9
:1009B000DCEF04F0DEEF04F047EF05F08EEF04F01B
:1009C000040E1218D8A4E7EF04F0E9EF04F047EFA3
:1009D00005F01450030D010E0F6E080E106EF3504B
:1009E0000F26F450102213500F26000E10220FC0B5
:1009F000F6FF10C0F7FF0800F550330AD8B403EF34
:100A000005F005EF05F007EF05F0000E156E150473
:100A1000D8A40DEF05F00FEF05F02AEF05F0010E59
:100A2000846E000E0C6E010E0B6E4DEC05F08B8487
:100A30008B8C100E106E390E0F6E0E0EE82EFED738
:100A40000F2EFCD7102EFAD78B948B9C000E846E41
:100A500045EF05F0010E846E000E0C6E000E0B6E5D
:100A60004DEC05F08B808B82100E106E390E0F6EE0
:100A70000E0EE82EFED70F2EFCD7102EFAD78B9035
:100A80008B92000E846E010E156E000E126E000E1B
:100A9000116E0FEF04F045EF00F077EF05F07E0EDA
:100AA000806EADEF05F0300E806EADEF05F06D0E8F
:100AB000806EADEF05F0790E806EADEF05F0330E70
:100AC000806EADEF05F05B0E806EADEF05F05F0E52
:100AD000806EADEF05F0700E806EADEF05F07F0E0D
:100AE000806EADEF05F07B0E806EADEF05F00BC0B4
:100AF0000DF00CC00EF00E50000AD8B482EF05F0D5
:100B0000ADEF05F00D50000AD8B44FEF05F0010A23
:100B1000D8B453EF05F0030AD8B457EF05F0010A33
:100B2000D8B45BEF05F0070AD8B45FEF05F0010A0F
:100B3000D8B463EF05F0030AD8B467EF05F0010AF3
:100B4000D8B46BEF05F00F0AD8B46FEF05F0010AC7
:100B5000D8B473EF05F0ADEF05F01200000E8D6E06
:100B6000000E8C6E000E896E000E8A6E000E8B6E6B
:100B7000000E966E800E926E9368800E946E000E3C
:100B8000956EFC0E0F015E6FC40E5D6F300E5C6FD4
:100B9000070E5F6F2F0E5B6F000E856EF18E1200D9
:100BA000F292F18CE60E0B6E0C0E0C6E9EEC06F0C3
:100BB000F288F090F18ACC0E0B6E0C0E0C6E99EC54
:100BC00006F0F086F092F188B20E0B6E0C0E0C6EF1
:100BD00094EC06F0F088120001500210D8B4F3EF44
:100BE00005F0F5EF05F002EF06F002D802EF06F08F
:100BF0000500FA6E0150FD6E0250FE6EF850FF6E59
:100C0000FA501200120003500410D8B40AEF06F094
:100C10000CEF06F019EF06F002D819EF06F0050008
:100C2000FA6E0350FD6E0450FE6EF850FF6EFA50DF
:100C30001200120005500610D8B421EF06F023EF81
:100C400006F030EF06F002D830EF06F00500FA6E3D
:100C50000550FD6E0650FE6EF850FF6EFA50120001
:100C60001200620EF66E0D0EF76E000EF86E0900A1
:100C7000F5CF15F0146A136A126A116A169016926B
:100C8000000EF86E000109EF04F0D59C000ED76E3F
:100C9000000ED66ED650D7CF0BF00C6A0BC00CF0FE
:100CA0000B6A0B10076E0C50086EF2949F0ED56EF7
:100CB00012001150D8A45FEF06F061EF06F065EF67
:100CC00006F0020E136E010E116E12001150D8A420
:100CD0006CEF06F06EEF06F072EF06F0010E136E89
:100CE000010E116E12001150D8A479EF06F07BEFBF
:100CF00006F07FEF06F0000E136E010E116E12006B
:100D0000AFEC06F0AEEC05F08BEC06F0D0EC05F0A5
:100D100045EC06F01200520ED36E000ED26E000E9D
:100D20009B6E000EB56E12000BC001F00CC002F0FD
:100D300012000BC003F00CC004F012000BC005F051
:100D40000CC006F01200F092ECEC05F01200F090EE
:100D500003EC06F01200F2921AEC06F01200D09E9C
:030D60001200017D
:020000040020DA
:08000000FFFFFFFFFFFFFFFF00
:020000040030CA
:0E00000000285F3CFFD381FF0FC00FE00F40D0
:00000001FF
